:020000040800F2
:1000000000002F207D07010801410008034100087E
:10001000054100080741000809410008CD07010813
:1000200000000000000000000000000081E2000865
:100030000B4100080000000011E20008BFFE0008AC
:10004000CD070108CD070108CD070108CD0701083C
:10005000CD070108CD070108CD070108CD0701082C
:10006000CD070108CD070108CD070108CD0701081C
:10007000CD070108CD070108CD070108CD0701080C
:10008000CD0701080D410008CD070108CD07010883
:10009000CD070108CD070108CD070108CD070108EC
:1000A000CD070108CD070108CD070108CD070108DC
:1000B000CD0701081541000821410008CD070108BE
:1000C000CD070108CD070108CD070108CD070108BC
:1000D000CD070108CD070108CD070108CD070108AC
:1000E000CD070108CD070108CD070108CD0701089C
:1000F000CD0701082D410008CD070108CD070108F3
:10010000CD070108CD070108CD070108CD0701087B
:10011000CD070108CD070108CD070108CD0701086B
:10012000CD070108CD070108CD070108CD0701085B
:10013000CD070108CD070108CD070108CD0701084B
:10014000CD070108CD070108CD070108CD0701083B
:10015000CD070108CD070108CD070108CD0701082B
:10016000CD070108CD070108CD070108CD0701081B
:10017000CD070108CD070108CD070108CD0701080B
:10018000CD070108CD070108CD070108CD070108FB
:10019000CD070108CD070108CD070108CD070108EB
:1001A000CD070108CD070108CD070108CD070108DB
:1001B000CD070108CD070108CD070108CD070108CB
:1001C000CD070108CD070108CD070108CD070108BB
:1001D000CD070108CD070108CD070108CD070108AB
:1001E000CD070108CD070108CD070108CD0701089B
:1001F000CD070108CD070108CD070108CD0701088B
:10020000CD070108CD070108CD070108CD0701087A
:10021000CD070108CD07010839410008CD070108C5
:10022000CD070108CD070108CD070108CD0701085A
:10023000CD070108CD070108CD070108CD0701084A
:10024000CD070108CD070108CD070108CD0701083A
:100250004541000851410008CD0701085D410008F3
:1002600069410008CD070108CD070108CD07010845
:040270006D410008D4
:1002800053B94AB9002908BF00281CBF4FF0FF31FD
:100290004FF0FF3000F00CB8ADF1080C6DE904CE62
:1002A0003DF0DEFADDF804E0DDE9022304B070473A
:1002B000704700BF0348044B834202D0034B03B195
:1002C00018477047242923202429232000000000F8
:1002D000064B0749C91A891048BF0131491003D09C
:1002E000044B0BB101481847704700BF2429232055
:1002F000242923200000000010B5064C237843B9C0
:10030000FFF7D8FF044B13B10448AFF3008001237B
:10031000237010BD40102A200000000060DB03089D
:1003200008B5054B1BB105490548AFF30080BDE892
:100330000840FFF7CDBF00BF0000000044102A2096
:1003400060DB0308704704387047704710B50446F7
:1003500010213AF0EAFE204610BDA0F10400F5E7B6
:1003600000228260024AC160026018324260704717
:1003700058DC0308704770477047704710B5044653
:10038000024B036000F07FF8204610BD80DC0308BC
:1003900010B50446FFF7F2FF20466C213AF0C5FE87
:1003A000204610BD10B5044600F086F8014B2046EB
:1003B000236010BD80DC030800F066B800220260F4
:1003C00070477047704700F598730868496803C321
:1003D0007047704700F0B0B910B504464FF4AE71E5
:1003E0003AF0A3FE204610BD10B50446D0F85801DF
:1003F000FFF7E7FF2046BDE8104012F0B1BE10B590
:100400000446D0F8400158B10368DB68984738B11A
:10041000D4F8400103689B6898470023C4F8403132
:1004200010BD000010B5044600F062F9014B2046F3
:10043000236010BDB4DC0308002070478180704742
:10044000C180704701817047418170477047704794
:1004500070477047704710B4C4880368121B8488C3
:100460005B6D091B12B25DF8044B09B218474FF6D9
:10047000FF7383814FF0FF3303621368C361106021
:100480007047704770477047704710B504466C213D
:100490003AF04BFE204610BD90F8252012B10368BB
:1004A0005B691847704790F825201AB190F824200E
:1004B00002B118607047000038B5044614F07EFDA4
:1004C0000023154A04F140052260144AC4E912339E
:1004D000C4E910234FF48072A4F86420FF22C4E919
:1004E0001433C4E91633E363236684F86620A366F5
:1004F00028464FF44871FFF7A5FF28464FF4F071E6
:10050000FFF7A2FF4FF07F43201D2946A36610F09E
:1005100098F9204638BD00BF08DD030850FF0308E6
:1005200070477047704741607047704770470123BC
:10053000037270477047034610B4C2684168541094
:1005400001EB6200D20748BF0A599B685DF8044B73
:1005500048BFD35818470346406830B19A681AB963
:10056000D86800F0010070470120704710B50446BC
:100570000C213AF0DAFD204610BD10B504461021DA
:100580003AF0D3FD204610BD10B504464FF4AE71CD
:100590003AF0CBFD204610BD10B512F05BFDBDE872
:1005A00010400368DB6B18472DE9F14F0746D0E98F
:1005B000556AB06803681B6A98476B2805D8A32161
:1005C000434B444A44483CF0A3F8706803681B6AF4
:1005D00098470F2803D8A421404B3E4AF2E7F06821
:1005E00003681B6A98470B2803D8A5213C4B394A5E
:1005F000E8E712F02FFDDFF8F090043012F04FFD25
:10060000D9F8000010B10368DB689847D9F80000FA
:1006100010B103681B689847DFF8D080D8F8000055
:1006200010B103685B699847D7F83C0110B10368C3
:100630005B689847D8F8000010B103681B689847BA
:10064000D7F83C0110B103689B689847F068002117
:1006500003684FF0000B5B6A9847224BC0F804B068
:1006600080F808B003600446B068594603685B6AC6
:1006700098470546FFF796FE7068594603685B6A1F
:10068000984706462946FFF76BFE331DC7F83C61C5
:10069000C9F80040C8F80050CAF80030C6F808A0F1
:1006A0002B68EE632846DB689847336830461B6842
:1006B00098472146284614F01CFE236820461B69F3
:1006C0009847204623685B6901B0BDE8F04F1847A2
:1006D00034DD0308C2DD030894DE0308D5DE030819
:1006E00078DF0308D8F60308EC002C20F0002C205B
:1006F00070B504460D46164612F072FD00210A4BF5
:10070000C4E94F111C60094BC4E953112360084B25
:10071000C4E95565C4E95131064B186803689B6804
:100720009847204670BD00BFF4002C2084F60308D3
:100730006CF60308AC002C20064BC0F84801C0F84A
:100740004C310023C0F8503100F5A273C0F840319D
:10075000704700BFA905000813B5002451B1036814
:1007600001948DF8034001AA9C680DF10303A04792
:1007700002B010BD0846FBE7C0897047008A704789
:10078000C088704780887047807A00F07F0070478B
:10079000807AC00970470020704700009FED010A71
:1007A000704700BF00000000406A7047806A7047D1
:1007B000704710B58A880B884C88C169D20A51F8F5
:1007C00022009BB243EA0443184410BD10B504460E
:1007D000BAB1107B68B1537BD27A1B0203F4E06399
:1007E0001A43236A03EB82031A888A4202D193F9DF
:1007F000020010BD05D8013880B204330028F3D1BF
:10080000F7E70020F5E710B504462C213AF08DFCFF
:10081000204610BD30B504468BB0BDF86050089539
:10082000BDF85C5007959DF8505006959DF84C50CA
:1008300005959DF8485004959DF8445003959DF802
:10084000405002959DF83C500195BDF838500095F8
:1008500014F0C2F92046064B2360159BE361169BFA
:100860002362199B63621A9BA3620BB030BD00BF69
:10087000FCF603087047000030B5124D8FB02B68AE
:1008800013F001031BD13F2209920F4A0124089261
:100890000E4ACDE90B33CDE90632CDE9013304220E
:1008A0000A9305930A23CDE90324094922460948FE
:1008B0000093FFF7AFFF08482C603BF047FF054867
:1008C0000FB030BD5C102A20F40B0408F00B0408B4
:1008D000A40B040860102A207508000810B5002435
:1008E00004600C6014601C6010BD704730B5124D80
:1008F0008FB02B6813F001031BD13F2209920F4ADE
:10090000012408920E4ACDE90B33CDE90632CDE938
:10091000013304220A9305932823CDE903240949CE
:10092000224609480093FFF775FF08482C603BF00A
:100930000DFF05480FB030BD8C102A20EC0B0408C9
:10094000FC0B0408CC0B040890102A20EB080008CC
:100950007047000030B5124D8FB02B6813F00103C3
:100960001BD13F2209920F4A012408920E4ACDE979
:100970000B33CDE90632CDE9013304220A93059306
:100980001423CDE903240949224609480093FFF7BF
:1009900041FF08482C603BF0D9FE05480FB030BD40
:1009A000BC102A20F80B0408000C0408DC0B040817
:1009B000C0102A2051090008704710B504460421D0
:1009C0003AF0B3FB204610BD012908B506D0022934
:1009D00008D059B900F014F8006808BD00F010F80C
:1009E0004068FAE700F00CF88068F6E70020F4E7CA
:1009F0000048704770F703080120704700207047D7
:100A000000487047EC102A2010B5FFF7A3FF044CF4
:100A10002060FFF76BFF6060FFF72EFFA06010BD46
:100A2000EC102A2000207047002070470EB403B558
:100A300003AB53F8042B0021019313F04DFB02B0DC
:100A40005DF804EB03B070470CB407B504AB53F882
:100A5000042B019313F040FB03B05DF804EB02B0EC
:100A60007047000010B5436C044673B3038F2BB975
:100A7000C521184B184A19483BF04AFEC38E00EBBB
:100A800043035B8C0BB315F0E3F8238F012B03D8E2
:100A9000CB21134B134AEEE7E28E40F63F10531C76
:100AA0009BB21946092B88BFA3F10A0104EB41014F
:100AB000498C814209D10A2B28BF002304EB420252
:100AC000508C04EB4303588451842046BDE8104009
:100AD00014F0C0BF1BE0030824E00308CFE00308C4
:100AE00013E1030821E1030814F07CBF38B518BBFB
:100AF000124B13481C681349B4B1226822440260A7
:100B0000626822440A60A268144400220E4B1A80D4
:100B1000FFF776FF0546FFF771FF0C4B1C600C4B8F
:100B20001D600C4B188007E00B4B03600B4B0B60F8
:100B30000B4B1C68002CE8D138BD00BF04112A20E3
:100B4000FC102A20F8102A2000112A2004012C2051
:100B5000FC002C20F8002C200C0C0408040C0408C9
:100B600084F70308012380F87C1080F87D307047FB
:100B7000002070478164003918BF0121014B1970B2
:100B8000704700BF9F002C20704700207047C36B48
:100B90000BB10846184770474FF6FF707047406822
:100BA00003689B69184770477047704770477047E4
:100BB0009022044B83F8762383F8872383F88423D9
:100BC000704700BF00E100E0094A0A49D3680A48BB
:100BD000C3F30A03013B9BB20B801169C1F30A0105
:100BE000013901801364536B43F001035363704771
:100BF000006801400A112A2008112A20014BD3F86D
:100C0000AC007047006801400122024BC3F8AC10F1
:100C10005A627047006801407047242303FB0100BB
:100C2000002380F82430704780F82C10704710B5EE
:100C3000044630213AF079FA204610BD38B5044612
:100C40004FF4804115F0C6FD23689D6E12F002FA44
:100C500001462046A8472368064AD3F88C504FF037
:100C6000005100232046A8476268034B5A64034A98
:100C7000536038BD0094112040112A2010112A2001
:100C8000F8B50446104629B1AA213E4B3E4A3F48DA
:100C90003BF03EFD94F825301BB994F82630002B2C
:100CA0006ED000273A4B1B6893F86F20236984F8B5
:100CB00026701344236194F82830002B5CD003681D
:100CC00065685B699847E6692B68002E2DD0314630
:100CD00028465B6A98472B682846DB6AE66998478E
:100CE00086422CBF00260126E7612B6828469B6AB6
:100CF0009847A368E0600133A360D4E90432A16996
:100D00005343A2684A43934238D994F82C0038B12F
:100D10009B1AB3FBF1F2994298BF02F1FF322262B3
:100D2000012384F828303046F8BD226A62B1D3E945
:100D3000097328469847216A01442846B847A368A2
:100D4000226A26621344A36094F827602B6826B1B8
:100D500028469B6998470646C7E79B6A28469847F6
:100D60002B680746DB6A28469847874201D22B68E2
:100D7000EEE784F82560B8E70126BEE70023D0E758
:100D80000126D0E7F3E1030807E2030838E303088C
:100D9000AC002C2015F03ABC15F078BC15F05EBD07
:100DA0000FF0F0BF10F06DB910B5044610F01AFE48
:100DB00023682046BDE81040D3F8BC30184710F037
:100DC00021B9000010B590F87C4090F838100C4B19
:100DD0008C421A7809D03AB90A490B4A0888148813
:100DE000108001220C801A7010BD002AFCD0064A27
:100DF0000449148808880C8010800022F3E700BFA3
:100E00009E002C20A6002C20A8002C2008B5094B01
:100E10001B888B4203D8084B1B88934205D9A52118
:100E2000064B074A07483BF073FC074B1980074BFA
:100E30001A8008BDA8002C20A6002C2077E3030808
:100E4000DAE303081DE40308A4002C20A2002C20F0
:100E500008B531B14FF49271034B044A04483BF09A
:100E600057FC90F8250008BDF3E103085CE4030893
:100E700038E3030810B531B14FF48F71054B064AC2
:100E800006483BF045FC40681146BDE81040036849
:100E90001B6B1847F3E1030876E5030838E3030802
:100EA00008B531B14FF48B71034B044A04483BF051
:100EB0002FFCC06808BD00BFF3E10308B4E60308D7
:100EC00038E3030870B5044629B16F21264B274A41
:100ED00027483BF01DFC052A2BD8DFE802F003254C
:100EE0002B30373F406803681B69984708B30123DC
:100EF00084F82530002384F82630A360236194F819
:100F00002730B3B96468236820469B6A98472368F2
:100F10000546DB6A2046984785420AD12368204669
:100F2000BDE870409B691847002380F8253080F8A1
:100F3000263070BDC3610023A3602361F9E7C3615C
:100F4000012380F8263080F82830F4E700230122BE
:100F500080F8253080F82630C261EDE7003B18BFED
:100F6000012380F82730E4E7F3E10308F9E70308F9
:100F700038E3030870B504460D4629B15F210D4BD7
:100F80000D4A0E483BF0C4FB406811460368DB681D
:100F90009847606803689B6A98472368E06084F814
:100FA00028505E6A29462B462046B446BDE870406C
:100FB00001226047F3E103085DE9030838E3030811
:100FC00070B50D46044611461A462DB14F210D4B02
:100FD0000D4A0E483BF09CFB406803689B689847AD
:100FE000606803689B6A98472368E06084F828502B
:100FF0005E6A29462B462046B446BDE87040012271
:10100000604700BFF3E1030893EA030838E30308ED
:1010100008B529B14121054B054A06483BF078FB4C
:10102000C0E905328160016108BD00BFF3E103083A
:10103000FEEB030838E303082DE9F34104461546A7
:101040001F4629B1EA21184B184A19483BF060FBAA
:10105000406803681B69984718B3DFF85C8001217A
:10106000D8F8000010F02CFD06463946684613F00B
:10107000F3F9684611F02AFE0E4B60681B88BDF933
:101080000220BDF90040294603FB0244026804EB3C
:101090004404D7693219B847D8F8000003681B6BBD
:1010A000984702B0BDE8F081F3E103084AED030878
:1010B00038E30308A4002C20AC002C202DE9F041DB
:1010C0000D460446194635B940F20131144B154A14
:1010D00015483BF01DFBC0E91052003A18BF012231
:1010E0000368124ED3F8903032709847E569A5B185
:1010F0002B681F68337873B1236820465B6B984771
:10110000236C834207D1616C094B28461A883B4601
:10111000BDE8F0411847216CF6E7BDE8F08100BF5B
:1011200091EE0308C9EE03081DE40308A0002C207B
:10113000A4002C20034690F87E0018B1586803687C
:101140001B6818477047000008B5034690F8240054
:1011500030B140F26D11074B074A08483BF0D8FA0E
:10116000012283F8242081F83420C8860887086388
:1011700008BD00BF17EF030847EF030838E3030873
:101180004FF480020A4BC3F88C20BFF34F8FBFF39C
:101190006F8F8022C3F89020BFF34F8FBFF36F8F04
:1011A0001022C3F89020BFF34F8FBFF36F8F7047AB
:1011B00000E100E04FF48002034BDA6080221A6104
:1011C00010221A61704700BF00E100E008B5054B2E
:1011D0001A68D20704D4012203481A603BF0B6FA19
:1011E000024808BD0C112A20AF0B00080428232058
:1011F00038B5184C23685BB3174B184A1B6C118821
:101200008B4216D10025164B19880AF061FD236820
:1012100093F86E2083F88050013283F86E2000F03E
:10122000B5FB206810F0DEFB2846BDE8384001F031
:101230005CBB0AF04DFD2468236820461B6A984772
:10124000012384F880300020BDE8384001F04EBB17
:1012500038BD00BFAC002C20006801400A112A20D4
:1012600008112A2008B50B4800F03EFD0A4B0B4A36
:101270004FF080711A60012283F82C200022C3E90C
:101280000122C3E90322C3E90522DA61596283F826
:10129000282008BD40112A2010112A2090F70308A9
:1012A00003685B6C184701207047FEE740F2EF309F
:1012B000704700004FF48002044B0360044BC3F8F6
:1012C0008C20BFF34F8FBFF36F8F7047D0F70308A9
:1012D00000E100E010B5044640F6A451FFF7EAFF34
:1012E000204639F022FF204610BD0000104B82B08E
:1012F000D3F8882042F48022C3F88820D3F88820CD
:1013000002F480220192019A1A6E42F480221A6637
:101310001A6E22F480221A66064B074A5A62074A5E
:101320001A624FF48002064BDA6002B0704700BFC9
:10133000000C02464C372A20AB1200089515000815
:1013400000E100E008B50A2809D8DFE800F006103F
:101350000E080808081010101000022008BD922185
:10136000044B054A05483BF0D3F90020F6E701207D
:10137000F4E700BF5EF0030879F00308C4F0030847
:1013800010B5887F0C46FFF7DDFF174B5863A18A25
:10139000E28A42EA01425A642269DA63628BA18AD4
:1013A000521A1A642268082A16D1A18A628B521A2C
:1013B0009A61A18A628B521A1A615862217F0B4A84
:1013C00042EA0162DA61E2681A6222695A612269BC
:1013D000DA60074A1A6010BD0022D8611A61E2681B
:1013E0009A63044AF6E700BF00B00240090001001A
:1013F000012302000123030008B50B280BD8DFE806
:1014000000F00612100A0A0A0A0808080808022052
:1014100008BD0520FCE77121044B054A05483BF057
:1014200077F90020F4E70120F2E700BF5EF003083F
:10143000EBF00308C4F00308F8B50C46487FFFF74B
:10144000DBFFA77F05463846FFF7D6FF064638463E
:10145000FFF778FFA38A628BD21A464B1A64A18ADF
:10146000628B521A9A61A18A228B521A1A615863AE
:10147000A18AE28A42EA01425A642269DA63626816
:10148000DA602168227F802924D011D8202968D0F1
:10149000402966D004295ED045EA0265354B45F403
:1014A0000035DD61617FA27F914260D0324A3FE02A
:1014B000B1F5807F04D0B1F5007FEDD12F4900E078
:1014C0002F4941EA0262DA61E2681A625E622269C9
:1014D0005A612CE045EA026242F40032A068DA6107
:1014E0005E6222695A61021DDA62027842B1012A03
:1014F00020D04FF48671234B234A24483BF008F94F
:10150000DA69418822F47F42013922F0100242EA6E
:1015100001220121DA61174BDA6942F02002DA6117
:10152000DA699206FCD410229A600029BED0184ACB
:101530001A60F8BDDA69408822F47F42217F0138C1
:1015400022F0100242EA0022FF3942F0100218BFD6
:101550000121DA61DFE745EA026242F40032DA6132
:10156000B4E745EA0262034B42F40032F7E742F285
:101570000132DDE700B00240012301000900020052
:101580000A00020035F103084FF10308C4F0030814
:1015900001230200024B1B68586803685B69184707
:1015A000AC002C200123074A03721168064B106817
:1015B00003EB4111097F03EB401009B101F0B2B810
:1015C00001F062B8D82B2A201028232010B590F8FB
:1015D000A03D0446A3B903689B6A9847164B174A77
:1015E0001B685B01D35C012B09D1154A126832B923
:1015F000227A22B9204684F8A03DFFF7D3FF10BD20
:10160000037A43B1002303720B4B18680B4B03EBB7
:10161000401001F00DF9606803681B6898470028C6
:10162000EDD1637A002BEAD0236884F8A00D5B6AC1
:101630002046BDE810401847D82B2A201028232028
:10164000D42B2A2010B50446406803681B689847CD
:1016500058B9637A4BB1237A3BB984F8A03D23682B
:101660002046BDE810405B6A1847074B074A1B68D5
:101670005B01D35C012B06D1227A22B9204684F883
:10168000A03DFFF78FFF10BDD82B2A201028232064
:1016900070B50446002625460A4B0C306060267261
:1016A000667245F8203B6022294610F00DFB04F5D8
:1016B0005A63EE6024359D42FBD184F8A06D20462C
:1016C00070BD00BFD0F70308034B1A68D207FCD4E3
:1016D00023229A60704700BF00B0024030B50E4C24
:1016E0002568ED07FCD42325A5600225120442F0ED
:1016F0000102FF2B65636264E063E16008D01B06B2
:1017000043F00213E361054B65626061236030BD05
:10171000034BE3610123F9E700B00240010002003E
:10172000020002FF30B50B4C2568ED07FCD42325E1
:10173000A560022512041B0643F4003342F00102A7
:1017400065636264E063E160E361034B656260616D
:10175000236030BD00B002400100020030B50F4CE4
:101760002568ED07FCD42325A5600125090429433C
:10177000FF2B65636164E0630CD00949656241EA4F
:101780000363E36122F07F42064B22626061E06006
:10179000236030BDE561044BA263F9E700B002406D
:1017A00009000100010002000100030030B50D4CEA
:1017B0002568ED07FCD42325A560012512042A43E2
:1017C000FF2B65636264E063E16007D0064A42EA8A
:1017D0000363E36165626061226030BD034BE361D6
:1017E0002560FAE700B0024001000200010002FF9C
:1017F00030B50B4C2568ED07FCD42325A5600125E9
:1018000012041B0643F400332A4365636264E063F9
:10181000E160E361034B65626061236030BD00BF3E
:1018200000B002400100020070B5104C256815F0B0
:101830000105FBD12326090441F00101FF2BA6601D
:1018400065636164E0630CD00949656241EA036342
:10185000E36122F07F42074B22626061E060236017
:1018600070BDE561044BA263F9E700BF00B0024020
:1018700009000100010002000100030070B50F4CD7
:10188000256815F00105FBD12326FF2B08BF022395
:101890004FEA024242F00102A66018BF1B066563D0
:1018A0006264074A18BF43F00213E063E16017BFA8
:1018B000E361E36165626061226070BD00B0024077
:1018C0000100020070B50F4C256815F00105FBD131
:1018D0002326120442F00102A660656362640022BE
:1018E000FF2B1CBF1B0643F40033E063E16018BF0D
:1018F000E361044B08BFE5615A62034A58611A600C
:1019000070BD00BF00B0024001000200012108B517
:10191000002208460EF06CFB0A4B186028B92821FB
:10192000094B0A4A0A483AF0F3FE0022042101203A
:101930000EF003FC074B186018B92C21064B034A24
:10194000F0E708BD8C112A208DF10308D6F10308B9
:1019500005F2030888112A202EF20308024B4FF0EB
:10196000FF3118680EF093BB8C112A20014B1868C8
:101970000EF0BBBB8C112A20024B002118680EF020
:1019800086BB00BF8C112A20FFF7F0BF002303485D
:101990001A46034900680EF00FBC00BF88112A20C8
:1019A00008282320002313B5074C1A4601A92068F4
:1019B0000EF036FC4FF0FF330022206801A90EF034
:1019C0002FFC02B010BD00BF88112A2001207047F3
:1019D0000C2070470C2303FB0100083070470C23D8
:1019E00003FB010008307047012070476C207047EE
:1019F0006C2303FB0100083070476C2303FB0100DC
:101A000008307047012070471020704700EB01102C
:101A10000830704700EB0110083070470846FEF7A9
:101A20008BBE000010B50446024B03600EF0F2FEC0
:101A3000204610BD88F8030810B50446FFF7F2FFF2
:101A40002046142139F071FB204610BD10B5044624
:101A5000024B03600EF0DEFE204610BD54F8030872
:101A600010B50446FFF7F2FF2046742139F05DFB04
:101A7000204610BD10B50446024B03600EF0CAFEAE
:101A8000204610BD20F8030810B50446FFF7F2FF0A
:101A90002046182139F049FB204610BD10B50446F8
:101AA000074B40F8A03BFFF7BDFF04F12C00FFF708
:101AB000CDFF04F11400FFF7DDFF204610BD00BF8D
:101AC000BCF8030808B50248FFF7E8FF08BD00BFEF
:101AD00080292A2010B50446FFF7E0FF20464FF486
:101AE000057139F022FB204610BD00002DE9F341BD
:101AF000FEF77EFF00240546FEF77EFF23460146E3
:101B000022462846009414F00BFB254B254A20461C
:101B1000254C1A60FEF7EAFF012120461DF0D4FD96
:101B2000224E234B2348A36014F060FA3368DB078E
:101B300030D4214C214B04F1B80504F1140004F118
:101B40002C0804F1A00723606060C4F80880E760F7
:101B500025610EF061FE1A4B404663610EF05CFE9B
:101B6000184B3846E3620EF057FE174B04F1B400F1
:101B7000C4F8A030FEF722FC224604F1B401284646
:101B8000FEF750FC2846FEF7D7FD01230F483360CF
:101B90003AF0DCFD0E4802B0BDE8F04100F06DBE49
:101BA00000012C2064122A2084122A207C292A2059
:101BB00068122A200C28232080292A20BCF8030838
:101BC00020F8030854F8030888F80308C51A000829
:101BD00090112A2008B528F09BFF7E2140F6FC706A
:101BE0000CF0D8F94FF4F0714FF44870012232F044
:101BF000BBFEBDE808400121084636F0B9B8000038
:101C000001480FF022B900BF90112A20F7B5134DFB
:101C1000134B144F144E28463B60FFF739FD3046F6
:101C20001DF044FD114812F031FC4FF448734FF49D
:101C3000F0720F4CCDE9003229463B463246204631
:101C400014F050FD0B4B23600023C4F8CC30C4F8D3
:101C5000D030094BC4F8C83003B0F0BDD41B2A20E3
:101C600000FA030878292A2084122A2068122A20E0
:101C700090112A2014F9030818FA03080148FFF705
:101C800019BB00BFD41B2A204069704790F8400060
:101C90007047036B23B9C06A003818BF0120704732
:101CA0000120704780687047704710B50C460430BB
:101CB0000FC884E80F0010BD7047000008B540F25F
:101CC000F911024B024A03483AF022FD75F5030868
:101CD00070F20308CBF2030810B50446482139F02E
:101CE00024FA204610BD000000220E4B10B511460C
:101CF0000446C0E90522C0E90722C0E90922C0E97B
:101D00000B22C0E90D22C0E90322C0E901220360D1
:101D1000C26380F8402001200EF06AF9024B18607F
:101D2000204610BDD0F80308DC2B2A2010B40C4646
:101D300011461A46036B3BB1C36B406BE41A204457
:101D40005DF8044B3AF0F3BEC06AF8E710B5036BD8
:101D500073B1C36B426BC91A531898785C7800044E
:101D6000525C40EA0420DB78104340EA036010BD77
:101D7000C26A5318525C59789878000440EA0120EE
:101D8000F1E7036B43B1C36BC91A436B5A1852781E
:101D9000585C40EA02207047C36A5A18585C53786E
:101DA00040EA03207047000070B50446006B0D4602
:101DB0001646D8B1A36B934208D20923B12184F807
:101DC00040300C4A0C4B0D483AF0A2FC0368DB682B
:101DD0009847206B32460368616B1B69984710B9BE
:101DE0000D2384F84030606BE56370BDE06A084401
:101DF000FBE700BF11F30308FEF20308CBF2030870
:101E00002DE9F843436904462BB9F721214B224AB7
:101E100022483AF07DFC08228169FFF7C5FFA169DD
:101E200020460431FFF792FF43F2300646F2643752
:101E3000A3691844A36A00F108029A4206D3012359
:101E400000206361236AA361BDE8F883636900F140
:101E50000901013321F0010108226361A1612046DB
:101E6000FFF7A2FFD4F8189020464946FFF789FFF4
:101E700009F1020180462046FFF783FF09F10401C2
:101E800005462046FFF762FFB045D1D1BD42CFD114
:101E90000120D9E753F303089CF30308CBF20308AE
:101EA000012938BF012170B503680D46DB6A04467D
:101EB0009847A84204D223682046DB6A9847054623
:101EC000E6696B1E06EB0316102206F10801204698
:101ED000FFF76AFF204606F11001FFF737FF236A7C
:101EE000043B0344C4E9055370BD000000212DE903
:101EF000F04104464822816180F84010FFF754FF0A
:101F0000A669042331462046624AFFF70FFF48B115
:101F1000032340F23F1184F840305F4A5F4B604832
:101F20003AF0F6FB06F10801042320465D4AA16160
:101F3000FFF7FCFE38B1042340F2471184F840302B
:101F4000554A594BEBE706F10C0104232046574A4A
:101F5000A161FFF7EBFE074638B105234FF4A771E7
:101F600084F840304C4A524BD9E7204606F1100124
:101F7000FFF7ECFE054620B94FF4AA714D4B464AD7
:101F8000CDE706F114080423414620464A4AFFF7EC
:101F9000CDFE002849D0062384F840300423204693
:101FA000464A06F11801FFF7C1FE00283FD007237B
:101FB00084F8403045440C2229462046FFF7F4FEC1
:101FC0003F4F05F1080604233A4631462046FFF705
:101FD000ADFE94F84030002848D0002B48D1A36AC9
:101FE000AB4249D805F10C030435A36129462046CC
:101FF000FFF7ACFE3044294660622046FFF7A6FE9C
:102000000644042231462046FFF7CEFE0423314623
:1020100020462C4AFFF78AFE002838D1012363614D
:10202000A369E6612362BDE8F0810127B6E7002FCE
:10203000C0D006F120012046FFF788FE4FF47A73E6
:10204000B0FBF3F006F1300160602046FFF77EFE42
:1020500006F14001A0602046FFF778FE06F144013A
:10206000E0602046FFF772FE2061A3E7002BB9D0A5
:102070000A2384F84030D6E7291D2046FFF766FE84
:1020800085190C2229462046FFF78EFE99E70B237F
:10209000EFE700BFCFF30308EDF30308D4F3030821
:1020A000CBF203081AF403081FF4030837F40308FB
:1020B0003CF4030852F403085EF4030863F40308D5
:1020C00068F403086DF40308C0E90A2100220263E2
:1020D000FFF70CBF10B5002304462163E3620B68D1
:1020E00008469B689847A0622046BDE81040FFF76D
:1020F000FDBE000073B500241B4B1C4E1C601C4B26
:102100001C4D1C601C4B34601C601C4B19601C4B2C
:102110001A6001221B4B1C601B4B1C601B4B9A82DC
:102120006A6BC3E90A44121B18BF01221A7732688E
:10213000C3E902441C709C6183F820409C6383F8CF
:102140003C401C639C861C6103EB4213EA684FF41D
:10215000C0756A4300925B684FF4504207F0E6FB9B
:10216000204602B070BD00BFF82E2A20EC2E2A2097
:10217000D82B2A20942B2A20082F2A20002F2A200F
:10218000042F2A20E02B2A20E42E2A2010282320A6
:102190004B68012B0ED1CB681A071EBF23F00F032B
:1021A0001033CB608B68180703D023F00F03103374
:1021B0008B607047022B0DD1CB681A0703D023F038
:1021C0000F031033CB608B685A07F2D023F007035C
:1021D0000833EDE7002BECD1CB685807F3D023F0A0
:1021E00007030833EEE7000030B40B4A13680B44D2
:1021F00013600A4A126893420CD2094CD21A25681D
:10220000B2F5504F2944216028BF4FF4504230BCF2
:1022100007F0F3BB30BC7047082F2A20042F2A2078
:10222000002F2A202DE9F041DFF820813F4CD8F81B
:102230000030DFF81CC11033C8F8003021683C4D75
:10224000DCF800E005EB41113A4EC1F810E03A49E4
:1022500033690968074659430EEB0113CCF8003087
:10226000D8F8001073698B4223680AD34FF4C07109
:10227000F26805EB43134A43BDE8F041596807F0A3
:10228000BFBB01215B01E954236805EB43139A604E
:102290000022236805EB43139A61336B1BB123685B
:1022A00005EB43131977D8F80030B2699A4221D967
:1022B0000022236805EB43135A752368013323601A
:1022C0002368012B88BF226023685B01EB5C33B17C
:1022D0000221384607F05EFB0122184B1A604FF4CA
:1022E000C0712368F26805EB43134A4338465968C6
:1022F00007F086FBD8F80030B2699A420AD8236802
:102300000F4A05EB43150123022138466B75136014
:1023100007F040FB0B4B1B681B7A2BB9BDE8F04163
:10232000094B18680DF0E1BEBDE8F081EC2E2A20C3
:1023300010282320942B2A20E82E2A20F82E2A2049
:10234000FC2E2A20F02E2A20DC2B2A20E42E2A2004
:102350000C2F2A2072B6FEE70122014B1A6070474B
:10236000FC2E2A2038B51B4D04462B685BB11A4B56
:102370001B6843B107F02FFF042802D1204607F065
:1023800042FB012038BD154B1868037A63B9144B22
:10239000144A1B685B01D35C012B05D10E4B1B68F3
:1023A00013B903681B6998470F4A1368012B05D1BD
:1023B0000E4B0C491B685B01CB5C0BB10220E1E7C3
:1023C0002B68002BFAD102212046136007F0A9FDEB
:1023D000F4E700BFFC2E2A20D42B2A20F02E2A203E
:1023E000D82B2A2010282320F82E2A20EC2E2A2051
:1023F00070B50546002A3CD0002B3AD003241D4876
:102400000461EC6826071CBF24F00F04103404603C
:102410002409C4602C694FF4166614F00F0418BF29
:10242000C4F110048460032446600698B0FBF4F005
:10243000114C20601148124C03601248FFF75AFEFD
:102440006A6C114B0F4D1A602846FFF78BFF206016
:102450002368022B05D10D4B4FF0FF3118680DF0AA
:1024600016FE2368012BEFD10023094A1360094AA5
:10247000136070BD942B2A20E82E2A200C2F2A20CE
:10248000F42E2A202C352A20F02E2A20DC2B2A207C
:10249000FC2E2A20D42B2A202DE9F04F994643699F
:1024A00004460F46904685B02BB9C321284B294AD4
:1024B00029483AF02DF908228169FFF775FCA669D1
:1024C00020463146FFF75DFCB11C83462046FFF7EE
:1024D00058FC311D82462046FFF738FCA36A06F1FE
:1024E00008010A189A42054626D243F230039B455A
:1024F00017D146F264339A4513D190B10246A161D7
:102500002046FFF751FC0E9B0146CDE901932A4678
:102510003B462046CDF80080FFF76AFF6369013330
:102520006361A3692B4405B90833626A013323F060
:1025300001039342A36109D1012301206361236A4E
:10254000A36180F0010005B0BDE8F08F0020F8E73E
:1025500053F3030872F40308CBF203082DE9F84F94
:1025600007468B469146816908229A46FFF71CFC74
:10257000BC693846211DFFF7E9FB04F1080102465A
:1025800080463846FFF710FC0323364CFA68236177
:10259000014613074FF416600EBF134622F00F03D7
:1025A00010336060BBF80650BBF9020023601B09C2
:1025B000E36005443B692DB29D4228BF1D46BBF92F
:1025C0000030A5612E46BBF804504FEA131C1D4491
:1025D0002DB2954228BF1546E36103F00F03236334
:1025E000214B05F10F022562C3F800A015F00F057D
:1025F0001E4B4FEA12126061A26218BFC5F11005AE
:10260000A2EB0C0216F00F0600F00F00E26260630E
:10261000424618BFC6F11006C3F8009014484B4656
:10262000A563C4F824C0E663FFF764FD7A6C114B20
:102630000F4D114C1A602846FFF794FE2060236866
:10264000022B05D10D4B4FF0FF3118680DF01FFD27
:1026500020680128EFD10023094A1360094A13605A
:10266000BDE8F88F942B2A20E82E2A200C2F2A2050
:102670002C352A20F02E2A20F42E2A20DC2B2A208A
:10268000FC2E2A20D42B2A20F0B54FF4C075DFF899
:1026900090C08269DCF82CE0DCF82410AEEB020379
:1026A000C0F818E04FF0010E0A44DCF81010554352
:1026B0004A431101164ADCF83840C2F834E01F01E1
:1026C00090F815E0C4EB031313F00F0618BFC6F122
:1026D00010061B04BEF1000F17D0DCF83CC0CCF193
:1026E000100C4CEA0303536403690B44D363094B96
:1026F0001B681C44084BE41B14641661D3614368D7
:102700002B44D360054B1360F0BD43F01003EAE7A0
:1027100000B00240E82E2A200B0009FF012301002F
:10272000942B2A202DE9F04F8569044639498BB056
:10273000002D6AD10A6BCB6A267D013B9D42D1F800
:102740003480637D14BF4FF0000ED1F838E0002EC6
:1027500014BF40460020002B59D0D1F83CC04FF4A4
:10276000C0774B6AD1F810B02B4402FB0BF95F43E2
:102770000BFB03F300FB0BFA274909EB0313096872
:102780000135A56101FB0A33002509EB0A19B8F1EF
:10279000000F00D006B92577C2F11002A2EB0E029D
:1027A000ADF8182010220126ADF81C202269DFF8B0
:1027B0007C801A44C0F11000184BA0EB0C00ADF85F
:1027C0001A00C1441868ADF81E1005920495CDF8A2
:1027D00008908DF821608DF822600196036801A9A8
:1027E0005B6898474FF010120D4B5E635A640D4AB8
:1027F000C3F83C801D641D61DA6162683A44DA60A6
:10280000094A1A600BB0BDE8F08F002293E79C469E
:10281000A5E700BF942B2A20E82E2A20F02E2A209C
:1028200000B002400B0009FF01230100E42B2A2025
:102830000D4B8269DB6A9A4215D100230B4A037063
:1028400011688360013111601168037701290375F4
:1028500088BF1360437D13B10122054B1A60054BFD
:1028600018680DF042BC7047942B2A20D82B2A20E0
:10287000D42B2A20DC2B2A20704738B5044604F1DB
:10288000C805FEF7DBF9284600F09AF80123256118
:1028900084F8743038BDFEF7B1B9FEF7B5B9FEF76C
:1028A0007FBAFEF77FBAFEF783B9FEF783BCFEF767
:1028B00067BCFEF789B9FEF76DBAFEF76DBA0EF088
:1028C0005BBA10B50446D42138F02FFC204610BD69
:1028D000014608B5034B186801B101210FF0AAF8B1
:1028E000012008BDAC002C2070477047704770472E
:1028F0007047000008B501220821064806F048FC90
:1029000011200022072106F043F9BDE808401120FC
:1029100006F06EB90010024230B587B00D4614467D
:102920000021102202A83AF0FAF8174B1A7812B9CF
:10293000002007B030BD00221A706423822100936A
:102940001248102302AA04F013FE0028F0D19DF8CB
:102950000830482BECD19DF80B209DF80A3002F08E
:102960000F0243EA02230A4A9DF80D1013609DF8F6
:102970000C20084801F00F0142EA012202602B609E
:10298000036801202360D4E7182F2A209C322A20D4
:10299000142F2A20102F2A2010B50446042138F0C5
:1029A000C4FB204610BD0000402802BF0122014B9D
:1029B0001A707047182F2A2040687047416070478E
:1029C0004FF0E022D2F8FC3D43F08073C2F8FC3DAA
:1029D000054B064AD3F8B01F0A43C3F8B02F1A6854
:1029E00042F001021A607047001000E055CEACC5FD
:1029F000521A02EB5302B2FBF3F07047014B5868D6
:102A0000704700BF001000E0704710B504460C216D
:102A100038F08BFB204610BD10B5036804461B69D7
:102A200031B19847A26863689B1A0344636010BD84
:102A30009847A060FBE7000000B589B02022002184
:102A400068463AF06CF804221A4800238261012299
:102A50001949C0E90233C0E90013C0E90433C0E9F1
:102A60000D33037780F82430826280F82C3080F8B0
:102A70004030836643640365C36380F8543008F0D4
:102A800045FA08B100F05BFF06230C4A6946CDE920
:102A9000002300230A4A0748CDE902320422CDE987
:102AA000042308F001FC08B100F049FF09B05DF80B
:102AB00004FB00BFAC2F2A20008002420008002E39
:102AC0000000FFFF00B589B02022002168463AF0DF
:102AD00026F804221A480023826101221949C0E91C
:102AE0000233C0E90013C0E90433C0E90D330377B2
:102AF00080F82430826280F82C3080F84030836681
:102B000043640365C36380F8543008F0FFF908B1EB
:102B100000F015FF06230C4A6946CDE90023002387
:102B20004FF6FF72CDE9023204220548CDE90423B5
:102B300008F0BAFB08B100F002FF09B05DF804FB31
:102B4000202F2A200081024201000080142210B5AB
:102B50000446C2B000210DEB020039F0E0FFE02294
:102B600000210AA839F0DBFF2368384A934239D1A3
:102B700000234FF40042CDE90A234FF480430AA812
:102B8000379309F075FA08B100F0D9FE304A13689E
:102B90000133012B13600CD12E4BD3F88C2042F45F
:102BA0008062C3F88C20D3F88C3003F480630193E7
:102BB000019B284BD3F88C2042F00102C3F88C20F3
:102BC000D3F88C3003F001030293029BC02303224D
:102BD00005930023204805A9CDE9062306F0CEF988
:102BE00042B010BD1D4A9342FAD100234FF4004277
:102BF000CDE90A234FF480430AA8379309F038FA45
:102C000008B100F09CFE124A13680133012B1360D7
:102C10000CD1104BD3F88C2042F48062C3F88C2086
:102C2000D3F88C3003F480630393039B094BD3F8F0
:102C30008C2042F00102C3F88C20D3F88C3003F0D2
:102C400001030493049B0823C1E700BF00800242F4
:102C50001C2F2A20000C0246000002420081024282
:102C600008B54FF4E1331548154AC0E900230023A5
:102C70000C22C0E90233C0E90523C0E90733C0E9EB
:102C80000933036105F05CFA08B100F058FE002139
:102C90000A480AF034FF08B100F051FE002107484D
:102CA0000AF052FF08B100F04AFE04480AF008FF9B
:102CB00018B1BDE8084000F042BE08BD60312A20CE
:102CC0000038014008B54FF4E1331548154AC0E912
:102CD000002300230C22C0E90233C0E90523C0E928
:102CE0000733C0E90933036105F02AFA08B100F09F
:102CF00026FE00210A480AF002FF08B100F01FFE7C
:102D0000002107480AF020FF08B100F018FE04482F
:102D10000AF0D6FE18B1BDE8084000F010BE08BDAC
:102D2000CC302A200048004008B54FF4E133164863
:102D3000164AC0E9002300230C221946C0E90523E6
:102D40001A46C0E90233C0E90733C0E90933036119
:102D50000AF076FE08B100F0F2FD00210A480AF000
:102D6000CEFE08B100F0EBFD002107480AF0ECFEB2
:102D700008B100F0E4FD04480AF0A2FE18B1BDE875
:102D8000084000F0DCBD08BD38302A200064004057
:102D900070B50446C6B01422002109A839F0BFFE60
:102DA000E02200210EA839F0BAFE2368634A93425C
:102DB00032D1012200230EA8CDE90E2309F058F9E3
:102DC00008B100F0BCFD5E4B5E48D3F8A42009A911
:102DD00042F48042C3F8A420D3F8A42002F4804235
:102DE0000192019AD3F88C2042F04002C3F88C2063
:102DF000D3F88C304FF4C06203F040030293029B7F
:102E00000223CDE909230023CDE90B3307230D93DA
:102E100006F0B4F846B070BD4B4A934245D1042247
:102E200000230EA8CDE90E2309F022F908B100F025
:102E300086FD434B0226D3F89C20002442F48022D6
:102E4000C3F89C20D3F89C20072502F4802203922B
:102E5000039AD3F88C203D4842F00202C3F88C203C
:102E6000D3F88C2009A902F002020492049AD3F844
:102E70008C2042F00402C3F88C20D3F88C30CDE9CA
:102E80000B4403F004030593059B4FF480630D95F9
:102E9000CDE9093606F072F82023CDE90B44CDE9DF
:102EA00009362B480D9509A9B2E72A4A9342B1D1B8
:102EB0004FF0005200230EA8CDE90E2309F0D8F8F8
:102EC00008B100F03CFD1E4B0226D3F89C200024E4
:102ED00042F00072C3F89C20D3F89C20072502F032
:102EE00000720692069AD3F88C201B4842F010021A
:102EF000C3F88C20D3F88C2009A902F010020792A5
:102F0000079AD3F88C2042F40072C3F88C20D3F8CF
:102F10008C30CDE90B4403F400730893089B122313
:102F20000D95CDE9093606F029F81023CDE90B44BB
:102F3000CDE9093609480D9509A969E7003801402E
:102F4000000C024600180242004800400004024201
:102F500000080242006400400010024200240242C5
:102F600008B51448144B01220360A3F17663A3F55E
:102F70007B23A3F2146343600023C0E90232C0E95B
:102F80000433C0E90633036204F096FA08B100F096
:102F9000D6FC0021074805F070FC08B100F0CFFC1A
:102FA0000021044805F095FC18B1BDE8084000F088
:102FB000C6BC08BD9C322A200054004008B5144805
:102FC000144B01220360A3F17663A3F57B23A3F6E0
:102FD000142343600023C0E90232C0E90433C0E98E
:102FE0000633036204F068FA08B100F0A8FC00217F
:102FF000074805F042FC08B100F0A1FC002104489C
:1030000005F067FC18B1BDE8084000F098BC08BDA9
:1030100048322A200058004008B51448144B0122B9
:103020000360A3F17663A3F57E23A3F214634360E8
:103030000023C0E90232C0E90433C0E90633036269
:1030400004F03AFA08B100F07AFC0021074805F0D4
:1030500014FC08B100F073FC0021044805F039FCB1
:1030600018B1BDE8084000F06ABC08BDF4312A2060
:103070000084004010B50446C4B01422002107A803
:1030800039F04DFDE02200210CA839F048FD2368FD
:10309000514A934233D1402200230CA8CDE90C239E
:1030A00008F0E6FF08B100F04AFC4C4C4FF4C04E6B
:1030B000D4F88C30002243F04003C4F88C30D4F8AC
:1030C0008C30474803F040030193019B1223CDE964
:1030D00007E30323CDE90923042307A90B9305F094
:1030E0004DFFD4F89C3043F40013C4F89C30D4F85E
:1030F0009C3003F400130293029B44B010BD394A84
:10310000934232D1802200230CA8CDE90C2308F091
:10311000AFFF08B100F013FC304C3020D4F88C30F5
:103120004FF0000C43F08003C4F88C30D4F88C309E
:1031300007A903F080030393039B1223CDE9070340
:103140000323CDE909C3042327480B9305F016FF99
:10315000D4F89C3043F48003C4F89C30D4F89C30FD
:1031600003F480030493049BC7E7204A9342C4D12D
:103170004FF4800200230CA8CDE90C2308F078FF5F
:1031800008B100F0DCFB154CC022D4F88C300021D3
:1031900043F00203C4F88C30D4F88C30144803F0A8
:1031A00002030593059B1223CDE907230323CDE9F1
:1031B0000913052307A90B9305F0E0FED4F8A0300E
:1031C00043F00203C4F8A030D4F8A03003F00203A7
:1031D0000693069B91E700BF00540040000C024696
:1031E0000018024200580040001C024200840040C7
:1031F0000004024208B501200CF0ECFEFBE770472A
:10320000002001490CF006BAD128000870470000E0
:1032100070B50B4E0B4D3246002128460CF08EFE49
:10322000094C0021094A206009480CF087FE094B2F
:1032300032461860002128460CF080FE206070BDE8
:103240005CFA0308F5310008F4322A2038FA030842
:103250007BE10008F0322A2008B50548054B0360E1
:1032600005F03CFD18B1BDE8084000F068BB08BDA2
:10327000F8322A2000F0024007B5194B02689A4242
:103280002BD1184B0521D3F88820842042F48012DA
:10329000C3F88820D3F8882002F480120092009AA4
:1032A000D3F8882042F40012C3F88820D3F888307D
:1032B000002203F400130193019B05F069FC8420B4
:1032C00005F096FC00220521852005F061FC852093
:1032D00003B05DF804EB05F08BBC03B05DF804FBB4
:1032E00000F00240000C02461C2210B500249AB0E7
:1032F00000210DEB020039F012FC1422002102A87B
:1033000039F00DFC302221460EA8019439F007FC5B
:103310002C482D4B7F22C0E90034FF234FF40011CD
:10332000C0E902234FF00043C0E904134FF080438B
:103330008461C0E90734446204F01AFA08B100F06D
:10334000FEFA204807A9CDE90A4407940C9401F03D
:1033500061FE08B100F0F3FA012202A9194804F055
:10336000D5FB00230122174802A9CDE90533ADF8AA
:1033700008308DF80A3004F061FA08B100F0DFFA85
:10338000124B01220F4801A9019304F0C5FA08B1BC
:1033900000F0D5FA00230122CDE91333ADF838301F
:1033A0008DF83A300F9316934FF4807305480EA9A9
:1033B0008DF85C20199304F0FFFA08B100F0BFFA11
:1033C0001AB010BD04332A20007800460101010024
:1033D00010B50446C0B01422002103A839F09FFBA9
:1033E000E022002108A839F09AFB2268214B9A427A
:1033F0003DD100234FF48022CDE908234FF48073A0
:1034000008A83C9308F034FE08B100F098FA1A4B73
:103410001A48D3F8F02003A942F40042C3F8F02080
:10342000D3F8A82042F40012C3F8A820D3F8A820AB
:1034300002F400120192019AD3F8D82042F400124B
:10344000C3F8D820D3F88C2042F00202C3F88C20B5
:10345000D3F88C30042203F002030293029B022370
:10346000CDE903230023CDE9053305F087FD40B006
:1034700010BD00BF00780046000C02460004024266
:1034800007B5104B0521D3F888201D2042F001021A
:10349000C3F88820D3F88830002203F00103019399
:1034A000019B05F075FB1D2005F0A2FB0022052104
:1034B0001E2005F06DFB1E2003B05DF804EB05F047
:1034C00097BB00BF000C024608B500230F48104A06
:1034D0001021C0E900234FF44072C0E90223012209
:1034E000C0E90D33C0E90512C0E90722C0E909228D
:1034F000C0E90B2203828374C3630AF04BFB18B14B
:10350000BDE8084000F01BBA08BD00BF34332A20D4
:1035100000A4004010B50446C0B01422002103A846
:1035200039F0FDFAE022002108A839F0F8FA226803
:103530001D4B9A4235D100234FF00062CDE908239C
:103540004FF0807308A82C9308F092FD08B100F0AA
:10355000F6F9164B0021D3F8A020154842F400726A
:10356000C3F8A020D3F8A02002F400720192019ABF
:10357000D3F88C2042F00202C3F88C20D3F88C30B0
:103580004FF4407203F002030293029B0223CDE941
:1035900003230323CDE90513092303A9079305F0AA
:1035A000EDFC40B010BD00BF00A40040000C02467E
:1035B0000004024210B500248EB03022002102A87F
:1035C00039F0ADFA1648174B0194036004F0CEFAB7
:1035D00008B100F0B4F9022201231148CDE9072314
:1035E00002A90022CDE905440294ADF810400994E7
:1035F00004F0D0FA08B100F0A2F90023084801A9AC
:10360000019301F0EAFC08B100F099F91022044896
:1036100002A904F0BFFA08B100F091F90EB010BD94
:1036200098332A200018024610B50446C0B0142270
:10363000002103A839F073FAE022002108A839F02C
:103640006EFA22681B4B9A4232D100231A4A4FF479
:103650008041CDE908234FF4004308A8CDE9351394
:1036600008F006FD08B100F06AF9144B1448D3F8CD
:10367000942003A942F04002C3F89420D3F8942088
:1036800002F040020192019AD3F88C2042F001022C
:10369000C3F88C20D3F88C30302203F0010302935E
:1036A000029B0323CDE903230023059305F066FC69
:1036B00040B010BD0018024600800010000C024609
:1036C0000000024270B51F4B88B0D3F89C206946B9
:1036D00042F00102C3F89C20D3F89C30064603F068
:1036E0000103019302A8019B02F0BEFB02F08CFBD8
:1036F0004FF08043144D2B6040F2E733EB60134BE7
:10370000B0FBF3F000230138686028462B61AB6002
:1037100003F052F8044668B9284602F08BFE0446CE
:1037200040B90F2E0CD8024631462D2005F030FA54
:10373000074B1E602D2005F05BFA204608B070BDD7
:103740000124F7E7000C0246AC332A2040420F0068
:103750005828232008B500230448036005F090FA98
:1037600018B1BDE8084000F0EAB808BDF8332A20D7
:10377000074B82B0D3F88C2042F40032C3F88C207F
:10378000D3F88C3003F400330193019B02B07047EF
:10379000000C024670B59EB06022002106A839F0E8
:1037A000BEF918220021684639F0B9F94FF44030CB
:1037B00001F066FB044608B172B6FEE708F0D0FAE5
:1037C000224A8121D2F8F030102523F01803C2F8E4
:1037D000F0302F224FF4A023CDE906234FF480735D
:1037E000CDE908134FF4805311934FF08063082202
:1037F000CDE90A530326022304254FF0500C06A8F6
:10380000CDE91436CDE918C2CDE91A23CDE91C441F
:103810000C941794169501F089FE08B172B6FEE774
:103820001F23CDE90200CDE9040029466846CDE911
:10383000003601F00FFD024608B172B6FEE74FF008
:10384000807101F05FFC1EB070BD00BF000C02462D
:1038500008B508F0EBFA01F08FFB01F09DFB0220A8
:1038600001F056FB044608B172B6FEE7FFF792FF7F
:1038700000F068F8FFF704FEFFF724F901F0B6FA4C
:1038800001F060F9FFF796FE00F0C4FA00F0D6FAF6
:1038900000F072FCFFF718FEFFF7DEFCFFF75AFF9F
:1038A000FFF75EFBFFF78AFBFFF7B6FB00F040FE79
:1038B00000F0A0F900F03AFA01F072F900F07EFD94
:1038C00000F098FCFFF710FD00F018FB00F052FB31
:1038D00000F0A4FF01F016F800F03AFE01F04EF8F7
:1038E00001F0C2F8FFF7BCF9FFF7ECF9FFF71CFA9B
:1038F00000F027F8FFF7A0F80AF038FC0AF035FCD2
:103900002146094803F074FC08B172B6FEE70122B3
:103910008021064805F03CFC0CF0DEFAFFF778FC4D
:103920000CF0F0FAFEE700BF24382A20001C024207
:103930000368B3F1804F01D108F0A2BA704772B6A4
:10394000FEE770472DE9F04F91B0142200210BA83B
:1039500039F0E5F89C4BDFF89082D3F88C20DFF843
:103960008C9242F01002C3F88C20D3F88C20404691
:1039700002F010020192019AD3F88C20802142F0CB
:103980000202C3F88C20D3F88C20DFF864A202F086
:1039900002020292029AD3F88C20002442F04002E4
:1039A000C3F88C20D3F88C20884F02F04002039299
:1039B000039AD3F88C20022542F00802C3F88C2029
:1039C000D3F88C204FF0080B02F008020492049AFE
:1039D000D3F88C20012642F00402C3F88C20D3F8DF
:1039E0008C2002F004020592059AD3F88C2042F054
:1039F0000102C3F88C20D3F88C2002F00102069259
:103A0000069AD3F88C2042F08002C3F88C20D3F8B9
:103A10008C2002F080020792079AD3F88C2042F49F
:103A20008072C3F88C20D3F88C2002F48072089244
:103A3000089AD3F88C2042F40072C3F88C20D3F893
:103A40008C2002F400720992099AD3F88C2042F07B
:103A50002002C3F88C20D3F88C30002203F020031E
:103A60000A930A9B05F094FB48460022082105F0C2
:103A70008FFB574B00221846402105F089FB50462A
:103A800000224FF4817105F083FB00221021514880
:103A900005F07EFB4FF400424F4B38460BA9CDE9B1
:103AA0000B230D9405F06AFA4FF4807238460BA987
:103AB000CDE90B25CDE90D450F9405F05FFA4046A1
:103AC0000BA9CDE90BB40D9405F058FA80224046BD
:103AD0000BA9CDE90B26CDE90D4405F04FFA4FF4C3
:103AE000C052CDE90B25032238460BA90E920D9446
:103AF00005F044FA48460BA9CDE90BB6CDE90D54C3
:103B000005F03CFA09214FF0400BCDE90B14334886
:103B10000BA90D9405F032FA2D4B0BA91846CDE9EF
:103B20000BB6CDE90D4405F029FA4FF4806303226A
:103B3000CDE90B350A2338460BA9CDE90E230D94A8
:103B400005F01CFA264B48460BA9CDE90C36CDF8FA
:103B50002CB005F013FA4FF4007338460BA9CDE9E9
:103B60000B340D9405F00AFA4FF481731027504678
:103B70000BA9CDE90B36CDE90D4405F0FFF90BA9F2
:103B80001448CDE90B76CDE90D5405F0F7F94FF463
:103B90000062114B40460BA9CDE90B230D9405F0B3
:103BA000EDF90BA90F48CDE90B740D9405F0E6F97A
:103BB00022460521112004F0EBFF112005F018F832
:103BC00011B0BDE8F08F00BF000C024600000242B9
:103BD00000200242001402420000111000240242A0
:103BE0000000211000080242001C024200100242A4
:103BF0000018024208B50548054B036005F0C8FCF3
:103C000018B1BDE80840FFF79ABE08BD2C352A2040
:103C100000A002407FB5002301683E4A054691425C
:103C2000CDE9023373D13C4A3C4CD2F888103C4871
:103C300041F40041C2F88810D2F888204FF40026E1
:103C400002F400420192019A7D22C4E9000202229C
:103C50004FF4003CC4E905624FF44002C4E907C2D6
:103C60000822C4E909224FF080422046C4E9023309
:103C7000C4E90B232361636304F094FA08B1FFF7EE
:103C80005EFE6C6310212548E56504F0B2FD08B1C5
:103C9000FFF755FE7C23234C234A0026C4E900236A
:103CA0004FF48063C4E9026308234FF400314FF4FA
:103CB0004002C4E90436C4E909334FF48043204686
:103CC000C4E90712C4E90B36A661666304F06AFA18
:103CD00008B1FFF734FE4FF48053124802A9029650
:103CE000039302F053F908B1FFF729FE2C6310216A
:103CF0000C48E56504F07DFD08B1FFF720FE8C203F
:103D00000022072104F044FF8C2004F071FF04B06E
:103D100070BD00BF00A00240000C0246B4342A204F
:103D2000D00002403C342A205000024008B5002355
:103D30000C480D4AC0E90233C0E900234FF6FF7278
:103D4000C0E9082342614FF40002C0E90C33C0E926
:103D50000A23036106F0D4FF18B1BDE80840FFF75D
:103D6000EEBD08BD84352A200094004030B50446DD
:103D7000C1B01422002103A838F0D1FEE0220021B6
:103D800008A838F0CCFE22681F4B9A423AD14FF473
:103D90008062002308A8CDE9082308F069F908B17A
:103DA000FFF7CDFD194B0224D3F8A020002542F0E7
:103DB0002002C3F8A020D3F8A020154802F020026A
:103DC0000192019AD3F88C2003A942F00202C3F8B1
:103DD0008C20D3F88C30CDE9034403F00203029326
:103DE000029B0E23CDE90555079305F0C7F84FF464
:103DF0000043074803A9CDE90334CDE905550794ED
:103E000005F0BCF841B030BD00940040000C024603
:103E10000004024208B54FF000430648064AC0E9D4
:103E2000002304F0A3FF18B1BDE80840FFF787BDE9
:103E300008BD00BF00362A200014034008B54FF02B
:103E400000430648064AC0E9002304F08FFF18B17A
:103E5000BDE80840FFF773BD08BD00BFD4352A2078
:103E6000001803400368124A82B093420ED1114BEE
:103E7000D3F8882042F08042C3F88820D3F88830F5
:103E800003F080430093009B02B070470A4A9342BC
:103E9000FAD1084BD3F8882042F40012C3F88820E6
:103EA000D3F8883003F400130193019BECE700BFC3
:103EB00000140340000C02460018034007B50E4BE7
:103EC000D3F8942042F00402C3F89420D3F894303D
:103ED00003F004030193019B01F046F801F04CF854
:103EE00001F052F800220F216FF0010003B05DF8DD
:103EF00004EB04F04DBE00BF000C02461FB54FF4AA
:103F000080031A481A4A0024C0E900230323C0E9A9
:103F100003344FF08063C0E906340723C3624FF0D7
:103F20008043CDE90144C0E90844C0E90D34C0E94B
:103F30001244C0E91444C0E9164403948460446107
:103F40008462C463046609F013FF08B1FFF7F7FC4D
:103F50004FF08053054801A9CDE90234019404F0E3
:103F600066FC08B1FFF7EBFC04B010BDBC362A209C
:103F7000003001401FB54FF480031A481A4A00244C
:103F8000C0E900230323C0E903344FF08063C0E994
:103F900006340723C3624FF08043CDE90144C0E9F2
:103FA0000844C0E90D34C0E91244C0E91444C0E932
:103FB00016440394846044618462C463046609F017
:103FC000D7FE08B1FFF7BBFC4FF08053054801A9AD
:103FD000CDE90234019404F02AFC08B1FFF7AFFCEC
:103FE00004B010BD2C362A2000380040142210B531
:103FF0000446C2B000210DEB020038F090FDE02233
:1040000000210AA838F08BFD2368384A934236D144
:1040100000234FF40002CDE90A234FF480130AA8CD
:104020003B9308F025F808B1FFF789FC304B1C20C2
:10403000D3F8A420002442F48052C3F8A420D3F87B
:10404000A42005A902F480520192019AD3F88C2091
:1040500042F04002C3F88C20D3F88C3003F04003C8
:104060000293029B0223CDE905030323CDE9074315
:1040700005232048099304F081FF42B010BD1E4A79
:104080009342FAD100234FF08072CDE90A234FF416
:1040900080330AA83C9307F0EBFF08B1FFF74FFC11
:1040A000134B0021D3F89C20144842F48042C3F8FB
:1040B0009C20D3F89C2002F480420392039AD3F808
:1040C0008C2042F48072C3F88C20D3F88C300E22FE
:1040D00003F480730493049B0223CDE90523032397
:1040E000CDE90713052305A90993C4E70030014072
:1040F000000C024600180242003800400020024234
:10410000FEE7FEE7FEE7FEE7FEE77047402005F02A
:1041100045B80000014804F0A5BA00BF3C342A208D
:10412000014804F09FBA00BFB4342A20014802F0CD
:10413000E2B900BFAC332A20014804F08FBE00BFB3
:104140004C372A20014804F0E4BD00BFF8322A2091
:10415000014804F0F0BD00BFF8322A20014807F002
:1041600027BD00BFC4392A20FFF7F8BF014805F07A
:10417000D2BF00BF2C352A2008B54FF44033094880
:10418000094A0121C0E900230023C0E90213C0E964
:10419000063304F021FE18B1BDE80840FFF7CFBB9D
:1041A00008BD00BF4C372A2000B0024007B50F4BB6
:1041B00002689A4217D10E4B0521D3F88820762049
:1041C00042F48022C3F88820D3F88830002203F418
:1041D00080230193019B04F0DBFC762003B05DF8A3
:1041E00004EB04F005BD03B05DF804FB00B0024031
:1041F000000C024608B500230548064AC0E9002322
:1042000007F0B6FD18B1BDE80840FFF798BB08BD40
:10421000B4372A2000080C4210B50446BAB0E02298
:10422000002102A838F07BFC22680E4B9A4217D17D
:104230004FF40022002302A8CDE9022307F018FF63
:1042400008B1FFF77CFB084BD3F88C2042F48022A6
:10425000C3F88C20D3F88C3003F480230193019BA6
:104260003AB010BD00080C42000C02461422F0B512
:104270000446C3B000210DEB020038F050FCE022F0
:1042800000210AA838F04BFC2268424B9A427FD1A9
:104290004FF0806200230AA8CDE90A2307F0E8FE68
:1042A00008B1FFF74CFB3C4B0324D3F88C200226CB
:1042B00042F40012C3F88C20D3F88C20002502F4BD
:1042C00000120092009AD3F89020344842F0100275
:1042D000C3F89020D3F8902005A902F010020192B3
:1042E000019AD3F88C200A2742F02002C3F88C20D0
:1042F000D3F88C2002F020020292029AD3F88C208C
:1043000042F00402C3F88C20D3F88C2002F004029F
:104310000392039AD3F88C2042F00102C3F88C2058
:10432000D3F88C30CDE9075403F001030493049BC8
:104330004FF480630994CDE9053604F01FFE4FF475
:104340007073164805A9CDE90536CDE907540997DC
:1043500004F014FE0E23124805A9CDE90536CDE977
:104360000754099704F00AFE06230E4805A9CDE973
:104370000536CDE90754099704F000FE01230848EB
:1043800005A9CDE90536CDE90754099404F0F6FDF9
:1043900043B0F0BD00140D42000C0246001402426E
:1043A0000008024200000242012208B511460BF04B
:1043B000E6FF003818BF012008BD000030B593B0FB
:1043C0001822002103A838F0AAFB09A80BF05AFF15
:1043D00004235548554A2021C0E9002300234FF00B
:1043E0008072C0E902320222C0E90412C0E9083238
:1043F0004FF08052C0E90B230822C0E90633C0E920
:104400000D238362C36305F0E1FF08B1FFF797FA5C
:104410000123CDE9033305934FF0011341F28832B4
:104420000693414803F57F0303A9079306F0BEF9FD
:1044300008B1FFF784FA00223B4811460CF03BF923
:104440000246002838D1014637480CF065F902468B
:1044500090BB012134480CF02EF9024660BB0121CB
:1044600031480CF059F938BB01222F4811460CF0A5
:1044700022F908BB01222C4811460CF04DF9D8B99D
:10448000642007F00FFD0022274811460BF013FFB0
:1044900008B1FFF754FA0022234811460BF0DCFF65
:1044A000024660B1FFF74BFA1F48FFF77DFF08B1E6
:1044B000FFF745FA13B030BDFFF741FAE3E70723F2
:1044C0000146009318484FF440730CF03FF8024641
:1044D0000028E7D1014614480BF0BEFF0346002830
:1044E000E0D101250246014600950F480CF02EF858
:1044F00004460028D6D1282007F0D4FC22462946BD
:1045000009480BF0D8FE03460028CBD102AA00923E
:104510002946024604480CF071F80028C2D19DF8E3
:104520000830AB42BED1BFE7C8372A2000140D4285
:1045300008B5002009F004FD08B1FFF700FA09F002
:104540000FFD18B1BDE80840FFF7F9B908BD00003C
:104550001FB500240D480E4BCDE90144C0E90034DD
:104560004FF6FF7303948460C360846102F024F902
:1045700008B1FFF7E4F9054801A90194039404F098
:10458000D3F908B1FFF7DBF904B010BDBC382A201D
:104590000010004010B5044688B01422002103A882
:1045A00038F0BDFA23681C4A934223D11B4B1C48A8
:1045B000D3F89C2003A942F00202C3F89C20D3F850
:1045C0009C2002F002020092009AD3F88C2042F064
:1045D0000402C3F88C20D3F88C30802203F004034B
:1045E0000193019B0223CDE90323079304F0C6FC4A
:1045F00008B010BD0B4A9342FAD1084BD3F89C2067
:1046000042F00802C3F89C20D3F89C3003F0080362
:104610000293029BECE700BF00040040000C02463E
:1046200000080242000C00400368124A82B0934224
:104630000ED1114BD3F89C2042F01002C3F89C20FD
:10464000D3F89C3003F010030093009B02B0704736
:104650000A4A9342FAD1084BD3F8A42042F480329C
:10466000C3F8A420D3F8A43003F480330193019B52
:10467000ECE700BF00100040000C02460040014083
:1046800010B5044688B01422002103A838F047FA78
:104690002268144B9A4222D1134B1448D3F8A42019
:1046A00003A942F40052C3F8A420D3F8A42002F4D2
:1046B00000520192019AD3F88C2042F48072C3F820
:1046C0008C20D3F88C30102203F480730293029B69
:1046D0001223CDE903230323079304F04FFC08B012
:1046E00010BD00BF00340140000C02460020024211
:1046F000142230B504468BB00DEB0200002138F0D7
:104700000EFA23683D4A934217D13D4B2020D3F83F
:104710008C2005A942F01002C3F88C20D3F88C300D
:1047200003F010030093009B0223CDE905033548F5
:10473000099304F023FC0BB030BD334A934214D1EB
:104740002F4B0121D3F88C20304842F48072C3F8FB
:104750008C20D3F88C3003F480730193019B0223E7
:10476000CDE90513099305A9E3E7294A93422CD122
:10477000234B0225D3F88C20032442F48072C3F823
:104780008C20D3F88C20214802F480720292029A85
:10479000D3F88C2005A942F00202C3F88C20D3F88C
:1047A0008C30099403F002030393039B2023CDE98B
:1047B000053504F0E3FB0123CDE905350023CDE900
:1047C00007330994134805A9B3E7134A9342B2D1BA
:1047D0000B4BD3F88C2042F00202C3F88C20D3F8A4
:1047E0008C304FF4804203F002030493049B0223B5
:1047F000CDE905230E230993E4E700BF0004004040
:10480000000C024600100242000C00400020024250
:1048100000340140000402420040014030B595B030
:104820001422002108A838F07AF91022002400216F
:104830000DEB020038F073F91C2221460DA8CDE9DA
:104840000144039438F06BF92C482D4B8460C0E987
:1048500000344FF0FF338461C0E9033402F00CF8F8
:1048600008B1FFF76CF8254802F036F808B1FFF7F9
:1048700066F80421602300240225CDE908131F48AF
:1048800008A9CDE90A540C9402F0B8FB08B1FFF76F
:1048900056F80022194804A9CDE90445CDE906449B
:1048A00002F0E2F908B1FFF74AF8022201231348A7
:1048B000CDE9042304A9042202F0D6F908B1FFF7D8
:1048C0003EF800240D4801A90194039404F02CF84B
:1048D00008B1FFF734F86023082208480DA9CDE994
:1048E0000D340F94119402F0B3F808B1FFF727F8D4
:1048F0000248FFF7FDFE15B030BD00BF54392A2035
:104900000004004010B500248AB01C22214603A8F0
:10491000CDE90044029438F002F91648164B846041
:10492000C0E900344FF0FF338461C0E9033401F083
:10493000A3FF08B1FFF703F869460E4800940294FC
:1049400003F0F2FF08B1FEF7FAFF00236022CDE981
:1049500003230C2207480DEB02010593079302F095
:1049600077F808B1FEF7EBFF0248FFF7C1FE0AB087
:1049700010BD00BF08392A20000C004010B50024EB
:104980009AB01C22214606A8CDE90044CDE9024494
:10499000CDE9044438F0C3F8342221460DEB02007F
:1049A00038F0BDF82E482F4BC0E90544C0E900346B
:1049B0004FF6FF738460C0E9033401F02DFF08B1A6
:1049C000FEF7BDFF69462648CDE90044029403F096
:1049D000ABFF08B1FEF7B3FF01210024204803AA72
:1049E000CDE90311059404F067F808B1FEF7A7FFBD
:1049F00000221B4806A9CDE90644CDE90844CDE9CB
:104A00000A440C9401F0F0FF08B1FEF798FF04226D
:104A1000134806A901F0E8FF08B1FEF790FF4FF434
:104A200080514FF400520023CDE911124FF0007273
:104A30000B480DA9CDE90D33CDE90F33CDE9133383
:104A4000CDE91623CDE91833159303F0DFFF08B144
:104A5000FEF775FF0248FFF74BFE1AB010BD00BF0E
:104A600070382A2000340140102210B500249CB078
:104A700000210DEB020038F052F81C22214608A854
:104A8000CDE90144039438F04AF8214634220FA8B6
:104A900038F045F8042329482949C0E90544C0E90C
:104AA000001340F2E7338460C0E9033401F084FE70
:104AB00008B1FEF744FF4FF48053204804A9049343
:104AC00002F086F908B1FEF73AFF1C4801F0D4FE67
:104AD00008B1FEF734FF0023184801A9019303939E
:104AE00003F022FF08B1FEF72AFF0024602240F203
:104AF000E5331248CDE9082308A92246CDE90A4446
:104B0000CDE90C440E9401F0A3FF08B1FEF717FFA6
:104B10004FF4005309480FA9CDE90F44CDE91144E2
:104B2000CDE9143413941B9403F070FF08B1FEF721
:104B300006FF0248FFF7DCFD1CB010BD24382A2018
:104B40000040014008B50848084B03600023C0E955
:104B5000053383800123036209F0B6F918B1BDE87B
:104B60000840FEF7ECBE08BDA0392A200030024004
:104B70000268094B82B09A420CD1084BD3F88820C6
:104B800042F48052C3F88820D3F8883003F480536D
:104B90000193019B02B0704700300240000C0246B6
:104BA00010B500248EB03422002101A837F0B7FFE1
:104BB0002248234B40F22B3CC0E900340323C0E9D8
:104BC00005330B23C0E9073340F2EB1340F2333EC9
:104BD000C0E909C340F2F313C0E90244C0E90BE3A2
:104BE0000461848680F8364006F066FF08B1FEF75F
:104BF000A6FE4FF4F0730121CDE90431FF214FF4FB
:104C00008060CDE9061405214FF44872CDE9080112
:104C10004FF00051CDE90224CDE90A1207480022E5
:104C200001A901940C93ADF834408DF8364007F09B
:104C300020F808B1FEF783FE0EB010BDC4392A205B
:104C4000006801402DE9F04314250446C5B02A460A
:104C5000002107A837F063FFE02200210CA837F0FD
:104C60005EFF22685A4B9A4240F0AE800022022337
:104C70000321CDE90C2304228120CDE90E12082264
:104C80004FF48023CDE910020CA8CDE91225419301
:104C9000169307F0EDF908B1FEF751FE4D4B0024D5
:104CA000D3F8A420022642F08062C3F8A420D3F8EF
:104CB000A420032502F080620192019AD3F88C208F
:104CC000082742F01002C3F88C20D3F88C20424809
:104CD00002F010020292029AD3F88C2007A942F047
:104CE0000802C3F88C20D3F88C204FF0400902F062
:104CF00008020392039AD3F88C204FF0070842F081
:104D00000402C3F88C20D3F88C2002F00402049231
:104D1000049AD3F88C2042F04002C3F88C20D3F8D8
:104D20008C2002F040020592059AD3F88C2042F0C4
:104D30002002C3F88C20D3F88C3003F020030693B4
:104D4000069B4FF68173CDE90736CDE909450B97F0
:104D500004F014F94FF60B73204807A9CDE9073684
:104D6000CDE909450B9704F009F91D4807A9CDE9DC
:104D70000796CDE90945CDF82C8004F0FFF81948D5
:104D800007A9CDE90796CDE90945CDF82C8004F0B7
:104D9000F5F84FF47843144807A9CDE90736CDE973
:104DA00009450B9704F0EAF822460521872003F015
:104DB000EFFE872003F01CFF88202246052103F028
:104DC000E7FE882003F014FF45B0BDE8F08300BF84
:104DD00000680140000C024600100242000C024232
:104DE00000080242001802420014024208B50548B9
:104DF000054B036000F0D8F818B1BDE80840FEF795
:104E00009EBD08BD6C3A2A20001002400268094B82
:104E100082B09A420CD1084BD3F8882042F00202AB
:104E2000C3F88820D3F8883003F002030193019B74
:104E300002B0704700100240000C024601220E48EA
:104E4000D0F8883043F47003C0F888300B4B1A60F8
:104E50000022DA611A625A62196821F0A85121F41D
:104E6000102119609A62196821F4802119601A656D
:104E70004FF000638360704700ED00E0000C0246D5
:104E80001D4BDA6B02F44032824208D1B2F5803F0A
:104E900082BFDA6842F48022DA6000207047DA6864
:104EA000B0F5803F22F4E02242EA000288BF42F4DB
:104EB0008022DA604FF47A72104B32211B68B3FB08
:104EC000F2F34B43B3FBF2F301331A460A49C868C5
:104ED000000404D40AB903207047013AF7E7002A16
:104EE000F9D0054AD16B090403D4002BF3D0013B60
:104EF000F8E7002BD1D1EEE7000802465028232026
:104F0000024BD86B00F44030704700BF00080246E7
:104F10004FF47A72124B32211B68B3FBF2F34B430E
:104F2000B3FBF2F30F4A0133916850B921F002014B
:104F30009160D16B88070ED50BB903207047013BF8
:104F4000F7E741F002019160D16B890703D4002B90
:104F5000F3D0013BF8E7002BEFD00020704700BFF3
:104F60005028232000080246024A136943F0805368
:104F70001361704700080246024A136943F0005368
:104F80001361704700080246024A136943F08043E8
:104F90001361704700080246024AD36A43F00103D6
:104FA000D36270470008024610B5044698B190F8E5
:104FB000213003F0FF021BB980F82020FFF726FF05
:104FC00000200123C4E90100C4E9030060626061BC
:104FD00084F8213010BD0120FCE710B5B0B1A9B1B3
:104FE0000379012BDAB213D14379012B10D00223BC
:104FF000046842710371636D096823F480030B43F5
:105000006365002302714371184610BD0120FCE75F
:105010000220FAE7D1E9003213430A4AD361D1E909
:10502000023213438A691343074A5362136A0869B9
:1050300003F0FF234969034343EA0143002013625D
:10504000704700BF00780046007C004637B52B4D06
:105050000446D5F894305B0718D5FFF751FF20F4CC
:105060008033B3F5003F26D1B4F1805F2CBF002020
:105070000120234A136823F00F03034313601368CE
:1050800003F00F03181A18BF01201BE0D5F8943065
:1050900043F00403C5F89430D5F8943003F00403CA
:1050A0000193019BFFF72CFFD5F8943023F0040304
:1050B000C5F89430D3E7B4F1805F05D2B0F5803FF6
:1050C00015D0012003B030BDB4F1005F06D980B91E
:1050D000B4F1405F8CBF00200120CAE7B4F1805FCB
:1050E00009D1B0F5803F0CBF01200220C1E70320A9
:1050F000BFE70020BDE70120BBE700BF000C024670
:105100000020024070B5134C86B0D4F88C3016469F
:1051100043F00103C4F88C30D4F88C304FF4807223
:1051200003F001030093009B0223CDE901230493C4
:1051300000230D46084801A90393059303F01EFFC1
:10514000E36923F0FE4343EA06022A43E26106B024
:1051500070BD00BF000C02460000024210B5384A84
:10516000D369916A13F00C0305D00C2B36D101F0F2
:105170000301012932D19168090254BFD2F8F42009
:105180009268304954BFC2F30332120F51F8220023
:10519000002B51D02A4ADFED2C5A916A936A946A07
:1051A000C3F30323013306EE903A936BC4F3001468
:1051B000C3F3CC03634307EE903A01F003010229E5
:1051C000B8EEE77AF8EEE66AB7EE006A14D0032983
:1051D00012D007EE900AF8EE677A0FE0D26902F07B
:1051E0000C02042A06D0082B27D000200C2B23D138
:1051F0000020CFE71548F9E7DFED157A536B87EE0E
:10520000A65AC3F3080307EE903AF8EEE77AE7EE02
:10521000257A0B4B77EE867A5B6B67EE857AC3F364
:105220000663013307EE103AF8EEC76A87EEA67AF6
:10523000FCEEC77A17EE900A10BD0448FCE700BFE9
:10524000000C024680FA0308000000390024F40034
:105250000024744B2DE9F3410D46044618B9012092
:1052600002B0BDE8F081994A136803F00F038B4246
:1052700075D32368DA067ED423681B070DD5944ABC
:105280002169136A1B0903F07003994281BF136AF5
:1052900023F4E06343EA0113136223685F070BD52D
:1052A0008B4AE168136A03F07003994281BF136A65
:1052B00023F070030B43136223689E070BD5844AC7
:1052C000A168136A03F00F03994281BF136A23F0A8
:1052D0000F030B4313622368D80759D42368990737
:1052E00000F1DB80794A136803F00F03AB4200F250
:1052F000E1802368590700F1F58023681A070DD56E
:10530000734A2169136A1B0903F0700399423FBF76
:10531000136A23F4E06343EA011313622368DB0694
:105320000BD56B4A6169536A03F0700399423FBF22
:10533000536A23F070030B435362FFF70FFF644B74
:10534000644A1B6A03F00F03D35CD840624B1860B9
:10535000624B186802B0BDE8F041FEF7B3B91368BC
:1053600023F00F030B431360136803F00F038B420A
:105370007FF475AF7DE7564A6169536A03F07003A5
:10538000994281BF536A23F070030B43536273E762
:1053900062684F4B032A4ED1D3F8942052073DD474
:1053A0000127D3F8942042F00402C3F89420D3F8E4
:1053B000943003F004030193019B06F06DFDDFF8C8
:1053C00020810646D8F80C305B0329D4404B2FB11E
:1053D000D3F8942022F00402C3F894201B6813F041
:1053E000007F3FF43CAF3A4E6268F36941F288387F
:1053F00023F003031343F36106F04EFD6368074691
:10540000032B25D1F36903F00C030C2B3FF466AF9B
:1054100006F042FDC01B4045F4D90AE00027CCE766
:10542000D8F80C305804D1D406F036FD801B022881
:10543000F6D9032014E7022A1B6802D113F4003FB7
:10544000CFE712B913F0040FCBE713F4806FC8E76E
:10545000022B0BD1F36903F00C03082B3FF43EAF92
:1054600006F01AFDC01B4045F4D9E2E77BB9F369A9
:1054700013F00C0F3FF432AF06F00EFDC01B404599
:10548000F5D9D6E706F008FDC01B4045D1D8F36931
:1054900003F00C03042BF5D120E70D4AA168136A31
:1054A00003F00F0399423FBF136A23F00F030B432E
:1054B000136217E7136823F00F032B43136013687D
:1054C00003F00F03AB427FF4CAAE12E700200240A4
:1054D000000C0246C8FA030850282320582823202D
:1054E00000080246064AE168136A03F07003994215
:1054F0003FBF136A23F070030B431362FDE600BF46
:10550000000C024608B5FFF729FE054B054A1B6A49
:1055100003F00F03D35CD840034B186008BD00BFF5
:10552000000C0246C8FA0308502823202DE9FF4149
:10553000044600283AD09E4BDE699F6A036806F055
:105540000C06D80607F0030740F1A180E3691EB1FD
:105550000C2E7BD1012F79D143B3954D606AAB6896
:10556000190256BFD5F8F430AB681B0403F0704342
:1055700098423AD9B6B1AB6843F40003AB60AB686C
:10558000626A23F070431343AB60636A226AB3F12B
:10559000404F0DD2002B1BDAEB6823F4787343EAFB
:1055A000421309E0FFF752FD0028E4D001200CE08F
:1055B000EB6823F01F031343EB60FFF7A3FF7D4B62
:1055C0001868FEF77FF8002861D004B0BDE8F081CC
:1055D000B3F1804FEB682BBF23F4F84323F4782317
:1055E00043EA822343EAC233E6E7AB6843F40003AD
:1055F000AB60AB68626A23F070431343AB60636ACD
:10560000226AB3F1404F0CD3EB6823F01F0313431E
:10561000EB60002ED1D1606AFFF718FD0028CCD0D6
:10562000C4E7002B05DAEB6823F4787343EA4213EE
:10563000EEE7B3F1804FEB682BBF23F4F84323F47C
:10564000782343EA822343EAC233E1E7584D002B33
:1056500077D02B6843F001032B6006F01DFC8046D9
:105660002B685A074FD5AB6843F40003AB60AB68B7
:10567000626A23F070431343AB60636A226AB3F13A
:10568000404F48D3EB6823F01F031343EB602368BC
:10569000DD0767D42368980700F1C28023681807E4
:1056A00040F13D81424BD3F89420510700F1F68040
:1056B0000127D3F8942042F00402C3F89420D3F8D1
:1056C000943003F004030193019B3B4DAB6ADA076E
:1056D00040F1E6806369364D002B40F0F280D5F84A
:1056E000F03023F0A053C5F8F03006F0D5FB0646A5
:1056F000D5F8F0301B0140F10A8106F0CDFB801B8C
:105700000528F5D905E006F0C7FBA0EB0800022844
:10571000A6D9032059E7002B05DAEB6823F4787348
:1057200043EA4213B2E7B3F1804FEB6804D323F4AA
:10573000F84343EA8223A9E723F4782343EAC233F8
:10574000A4E72B6823F001032B6006F0A5FB80463D
:105750002B685B079BD506F09FFBA0EB0800022897
:10576000F6D9D6E7082E626803D00C2E04D1032F99
:1057700002D1002A8ED119E7B2F5803F0C4B1DD122
:105780001A6842F480321A606368002B38D006F041
:1057900083FB0546DFF81880D8F8003099033FF501
:1057A00079AF06F079FB401B6428F5D9B1E700BF5B
:1057B000000C02465828232000080246B2F5A02F0C
:1057C00008D11A6842F480221A601A6822F4801202
:1057D0001A60D5E7B2F5A81F1A6806D142F48022F4
:1057E0001A601A6842F48012F2E722F480321A60DA
:1057F0001A6822F480221A601A6822F48012C2E722
:1058000006F04AFB0546DFF8D482D8F800309A0348
:105810007FF540AF06F040FB401B6428F5D978E7E0
:10582000042EE36803D00C2E0DD1022F0BD1002BD8
:105830003FF4BCAEA94A2169136923F4F81343EA83
:10584000014313612AE7A54DBBB12B6843F4807374
:105850002B6006F021FB06462B685B0507D52B69FC
:10586000226923F4F81343EA02432B6116E706F09A
:1058700013FB801B0228EFD94BE72B6823F48073BE
:105880002B6006F009FB06462B685F057FF506AF27
:1058900006F002FB801B0228F6D93AE7002714E73E
:1058A000AB6A43F00103AB6206F0F6FA0646AB6A58
:1058B000DB073FF50FAF06F0EFFA801B0228F6D9A1
:1058C00027E7D5F8F030A16903F08052914210D05B
:1058D00003F04062B2F1006F3FF468AE580148D463
:1058E0007E4AA169D2F8F03023F080530B43C2F80E
:1058F000F0307A4DD5F8F03043F08063C5F8F030E1
:1059000006F0CAFA0646D5F8F0301A0144D537B188
:10591000724AD2F8943023F00403C2F8943023681A
:105920005D0740F186806D4BD3F89420500739D441
:105930000127D3F8942042F00402C3F89420D3F84E
:10594000943003F004030293029B654DAB6AD907C0
:105950002AD5A268614B12F0010F35D1D3F8F0209F
:1059600022F00102C3F8F020D3F8F02022F0040264
:1059700037E0D5F8F03023F0A053C5F8F03006F04A
:105980008BFA0646D5F8F0301901A9D506F084FA4D
:10599000801B0528F6D9BCE606F07EFA801B052898
:1059A000B1D9B6E60027D0E7AB6A43F00103AB629A
:1059B00006F072FA0646AB6ADA07CAD406F06CFA49
:1059C000801B0228F7D9A4E612F0040FD3F8F020C8
:1059D0001EBF42F00402C3F8F020D3F8F02042F0DA
:1059E0000102C3F8F020A368002B4FD006F054FA50
:1059F00041F288380546394ED6F8F0309B0728D555
:105A0000A36813F0800FD6F8F0302ED041F288381A
:105A100043F08003C6F8F030304ED6F8F030180569
:105A20001DD537B12D4AD2F8943023F00403C2F8C3
:105A300094302368990655D423681A0675D42368D0
:105A4000580600F19780A16B002940F0E380002008
:105A5000BBE506F021FA401B4045CDD959E606F0DA
:105A60001BFA401B4045D8D953E641F2883823F051
:105A70008003C6F8F030194ED6F8F0301905D0D5AD
:105A800006F00AFA401B4045F6D942E606F004FA51
:105A900041F288380546114ED6F8F0309A0716D4F0
:105AA000D6F8F0301B06BCD541F28838D6F8F03075
:105AB00023F08003C6F8F030084ED6F8F030180511
:105AC000AFD506F0E9F9401B4045F6D921E606F0CE
:105AD000E3F9401B4045DFD91BE600BF000C02463E
